{
	"data": {
		"bytecode": {
			"linkReferences": {},
			"object": "608060405260fa600160006101000a81548160ff021916908360ff1602179055507ffffffffffffffffffffffffffffffffffffffffffffffffffffffffffffffff660025534801561005057600080fd5b506103c7806100606000396000f3fe608060405234801561001057600080fd5b506004361061007d5760003560e01c806333b42c621161005b57806333b42c62146100c8578063c3b69b77146100d2578063ce877eee146100dc578063e2a4b2af146100f85761007d565b806306540f7e1461008257806322ac4f7a146100a05780632cb777a6146100aa575b600080fd5b61008a610116565b60405161009791906101c5565b60405180910390f35b6100a861011c565b005b6100b2610136565b6040516100bf91906101f9565b60405180910390f35b6100d061013c565b005b6100da610176565b005b6100f660048036038101906100f19190610245565b61018f565b005b610100610199565b60405161010d919061028e565b60405180910390f35b60005481565b6002600081548092919061012f906102d8565b9190505550565b60025481565b6001600081819054906101000a900460ff168092919061015b90610320565b91906101000a81548160ff021916908360ff16021790555050565b60008081548092919061018890610349565b9190505550565b8060008190555050565b600160009054906101000a900460ff1681565b6000819050919050565b6101bf816101ac565b82525050565b60006020820190506101da60008301846101b6565b92915050565b6000819050919050565b6101f3816101e0565b82525050565b600060208201905061020e60008301846101ea565b92915050565b600080fd5b610222816101ac565b811461022d57600080fd5b50565b60008135905061023f81610219565b92915050565b60006020828403121561025b5761025a610214565b5b600061026984828501610230565b91505092915050565b600060ff82169050919050565b61028881610272565b82525050565b60006020820190506102a3600083018461027f565b92915050565b7f4e487b7100000000000000000000000000000000000000000000000000000000600052601160045260246000fd5b60006102e3826101e0565b91507f80000000000000000000000000000000000000000000000000000000000000008203610315576103146102a9565b5b600182039050919050565b600061032b82610272565b915060ff820361033e5761033d6102a9565b5b600182019050919050565b6000610354826101ac565b91507fffffffffffffffffffffffffffffffffffffffffffffffffffffffffffffffff8203610386576103856102a9565b5b60018201905091905056fea264697066735822122003c9abf2951220870dbec79e63a178727dfaacec743ebb860c8753cb34d8400d64736f6c634300080e0033",
			"opcodes": "PUSH1 0x80 PUSH1 0x40 MSTORE PUSH1 0xFA PUSH1 0x1 PUSH1 0x0 PUSH2 0x100 EXP DUP2 SLOAD DUP2 PUSH1 0xFF MUL NOT AND SWAP1 DUP4 PUSH1 0xFF AND MUL OR SWAP1 SSTORE POP PUSH32 0xFFFFFFFFFFFFFFFFFFFFFFFFFFFFFFFFFFFFFFFFFFFFFFFFFFFFFFFFFFFFFFF6 PUSH1 0x2 SSTORE CALLVALUE DUP1 ISZERO PUSH2 0x50 JUMPI PUSH1 0x0 DUP1 REVERT JUMPDEST POP PUSH2 0x3C7 DUP1 PUSH2 0x60 PUSH1 0x0 CODECOPY PUSH1 0x0 RETURN INVALID PUSH1 0x80 PUSH1 0x40 MSTORE CALLVALUE DUP1 ISZERO PUSH2 0x10 JUMPI PUSH1 0x0 DUP1 REVERT JUMPDEST POP PUSH1 0x4 CALLDATASIZE LT PUSH2 0x7D JUMPI PUSH1 0x0 CALLDATALOAD PUSH1 0xE0 SHR DUP1 PUSH4 0x33B42C62 GT PUSH2 0x5B JUMPI DUP1 PUSH4 0x33B42C62 EQ PUSH2 0xC8 JUMPI DUP1 PUSH4 0xC3B69B77 EQ PUSH2 0xD2 JUMPI DUP1 PUSH4 0xCE877EEE EQ PUSH2 0xDC JUMPI DUP1 PUSH4 0xE2A4B2AF EQ PUSH2 0xF8 JUMPI PUSH2 0x7D JUMP JUMPDEST DUP1 PUSH4 0x6540F7E EQ PUSH2 0x82 JUMPI DUP1 PUSH4 0x22AC4F7A EQ PUSH2 0xA0 JUMPI DUP1 PUSH4 0x2CB777A6 EQ PUSH2 0xAA JUMPI JUMPDEST PUSH1 0x0 DUP1 REVERT JUMPDEST PUSH2 0x8A PUSH2 0x116 JUMP JUMPDEST PUSH1 0x40 MLOAD PUSH2 0x97 SWAP2 SWAP1 PUSH2 0x1C5 JUMP JUMPDEST PUSH1 0x40 MLOAD DUP1 SWAP2 SUB SWAP1 RETURN JUMPDEST PUSH2 0xA8 PUSH2 0x11C JUMP JUMPDEST STOP JUMPDEST PUSH2 0xB2 PUSH2 0x136 JUMP JUMPDEST PUSH1 0x40 MLOAD PUSH2 0xBF SWAP2 SWAP1 PUSH2 0x1F9 JUMP JUMPDEST PUSH1 0x40 MLOAD DUP1 SWAP2 SUB SWAP1 RETURN JUMPDEST PUSH2 0xD0 PUSH2 0x13C JUMP JUMPDEST STOP JUMPDEST PUSH2 0xDA PUSH2 0x176 JUMP JUMPDEST STOP JUMPDEST PUSH2 0xF6 PUSH1 0x4 DUP1 CALLDATASIZE SUB DUP2 ADD SWAP1 PUSH2 0xF1 SWAP2 SWAP1 PUSH2 0x245 JUMP JUMPDEST PUSH2 0x18F JUMP JUMPDEST STOP JUMPDEST PUSH2 0x100 PUSH2 0x199 JUMP JUMPDEST PUSH1 0x40 MLOAD PUSH2 0x10D SWAP2 SWAP1 PUSH2 0x28E JUMP JUMPDEST PUSH1 0x40 MLOAD DUP1 SWAP2 SUB SWAP1 RETURN JUMPDEST PUSH1 0x0 SLOAD DUP2 JUMP JUMPDEST PUSH1 0x2 PUSH1 0x0 DUP2 SLOAD DUP1 SWAP3 SWAP2 SWAP1 PUSH2 0x12F SWAP1 PUSH2 0x2D8 JUMP JUMPDEST SWAP2 SWAP1 POP SSTORE POP JUMP JUMPDEST PUSH1 0x2 SLOAD DUP2 JUMP JUMPDEST PUSH1 0x1 PUSH1 0x0 DUP2 DUP2 SWAP1 SLOAD SWAP1 PUSH2 0x100 EXP SWAP1 DIV PUSH1 0xFF AND DUP1 SWAP3 SWAP2 SWAP1 PUSH2 0x15B SWAP1 PUSH2 0x320 JUMP JUMPDEST SWAP2 SWAP1 PUSH2 0x100 EXP DUP2 SLOAD DUP2 PUSH1 0xFF MUL NOT AND SWAP1 DUP4 PUSH1 0xFF AND MUL OR SWAP1 SSTORE POP POP JUMP JUMPDEST PUSH1 0x0 DUP1 DUP2 SLOAD DUP1 SWAP3 SWAP2 SWAP1 PUSH2 0x188 SWAP1 PUSH2 0x349 JUMP JUMPDEST SWAP2 SWAP1 POP SSTORE POP JUMP JUMPDEST DUP1 PUSH1 0x0 DUP2 SWAP1 SSTORE POP POP JUMP JUMPDEST PUSH1 0x1 PUSH1 0x0 SWAP1 SLOAD SWAP1 PUSH2 0x100 EXP SWAP1 DIV PUSH1 0xFF AND DUP2 JUMP JUMPDEST PUSH1 0x0 DUP2 SWAP1 POP SWAP2 SWAP1 POP JUMP JUMPDEST PUSH2 0x1BF DUP2 PUSH2 0x1AC JUMP JUMPDEST DUP3 MSTORE POP POP JUMP JUMPDEST PUSH1 0x0 PUSH1 0x20 DUP3 ADD SWAP1 POP PUSH2 0x1DA PUSH1 0x0 DUP4 ADD DUP5 PUSH2 0x1B6 JUMP JUMPDEST SWAP3 SWAP2 POP POP JUMP JUMPDEST PUSH1 0x0 DUP2 SWAP1 POP SWAP2 SWAP1 POP JUMP JUMPDEST PUSH2 0x1F3 DUP2 PUSH2 0x1E0 JUMP JUMPDEST DUP3 MSTORE POP POP JUMP JUMPDEST PUSH1 0x0 PUSH1 0x20 DUP3 ADD SWAP1 POP PUSH2 0x20E PUSH1 0x0 DUP4 ADD DUP5 PUSH2 0x1EA JUMP JUMPDEST SWAP3 SWAP2 POP POP JUMP JUMPDEST PUSH1 0x0 DUP1 REVERT JUMPDEST PUSH2 0x222 DUP2 PUSH2 0x1AC JUMP JUMPDEST DUP2 EQ PUSH2 0x22D JUMPI PUSH1 0x0 DUP1 REVERT JUMPDEST POP JUMP JUMPDEST PUSH1 0x0 DUP2 CALLDATALOAD SWAP1 POP PUSH2 0x23F DUP2 PUSH2 0x219 JUMP JUMPDEST SWAP3 SWAP2 POP POP JUMP JUMPDEST PUSH1 0x0 PUSH1 0x20 DUP3 DUP5 SUB SLT ISZERO PUSH2 0x25B JUMPI PUSH2 0x25A PUSH2 0x214 JUMP JUMPDEST JUMPDEST PUSH1 0x0 PUSH2 0x269 DUP5 DUP3 DUP6 ADD PUSH2 0x230 JUMP JUMPDEST SWAP2 POP POP SWAP3 SWAP2 POP POP JUMP JUMPDEST PUSH1 0x0 PUSH1 0xFF DUP3 AND SWAP1 POP SWAP2 SWAP1 POP JUMP JUMPDEST PUSH2 0x288 DUP2 PUSH2 0x272 JUMP JUMPDEST DUP3 MSTORE POP POP JUMP JUMPDEST PUSH1 0x0 PUSH1 0x20 DUP3 ADD SWAP1 POP PUSH2 0x2A3 PUSH1 0x0 DUP4 ADD DUP5 PUSH2 0x27F JUMP JUMPDEST SWAP3 SWAP2 POP POP JUMP JUMPDEST PUSH32 0x4E487B7100000000000000000000000000000000000000000000000000000000 PUSH1 0x0 MSTORE PUSH1 0x11 PUSH1 0x4 MSTORE PUSH1 0x24 PUSH1 0x0 REVERT JUMPDEST PUSH1 0x0 PUSH2 0x2E3 DUP3 PUSH2 0x1E0 JUMP JUMPDEST SWAP2 POP PUSH32 0x8000000000000000000000000000000000000000000000000000000000000000 DUP3 SUB PUSH2 0x315 JUMPI PUSH2 0x314 PUSH2 0x2A9 JUMP JUMPDEST JUMPDEST PUSH1 0x1 DUP3 SUB SWAP1 POP SWAP2 SWAP1 POP JUMP JUMPDEST PUSH1 0x0 PUSH2 0x32B DUP3 PUSH2 0x272 JUMP JUMPDEST SWAP2 POP PUSH1 0xFF DUP3 SUB PUSH2 0x33E JUMPI PUSH2 0x33D PUSH2 0x2A9 JUMP JUMPDEST JUMPDEST PUSH1 0x1 DUP3 ADD SWAP1 POP SWAP2 SWAP1 POP JUMP JUMPDEST PUSH1 0x0 PUSH2 0x354 DUP3 PUSH2 0x1AC JUMP JUMPDEST SWAP2 POP PUSH32 0xFFFFFFFFFFFFFFFFFFFFFFFFFFFFFFFFFFFFFFFFFFFFFFFFFFFFFFFFFFFFFFFF DUP3 SUB PUSH2 0x386 JUMPI PUSH2 0x385 PUSH2 0x2A9 JUMP JUMPDEST JUMPDEST PUSH1 0x1 DUP3 ADD SWAP1 POP SWAP2 SWAP1 POP JUMP INVALID LOG2 PUSH5 0x6970667358 0x22 SLT KECCAK256 SUB 0xC9 0xAB CALLCODE SWAP6 SLT KECCAK256 DUP8 0xD 0xBE 0xC7 SWAP15 PUSH4 0xA178727D STATICCALL 0xAC 0xEC PUSH21 0x3EBB860C8753CB34D8400D64736F6C634300080E00 CALLER "
		},
		"gasEstimates": {
			"creation": {
				"codeDepositCost": "193400",
				"executionCost": "46611",
				"totalCost": "240011"
			},
			"external": {
				"decreamentINT()": "24524",
				"increamentMyUINT8()": "26699",
				"increamentUINT256()": "24523",
				"myInt()": "2474",
				"myUint()": "2430",
				"myUint8()": "2537",
				"setUINT256(uint256)": "22564"
			}
		},
		"methodIdentifiers": {
			"decreamentINT()": "22ac4f7a",
			"increamentMyUINT8()": "33b42c62",
			"increamentUINT256()": "c3b69b77",
			"myInt()": "2cb777a6",
			"myUint()": "06540f7e",
			"myUint8()": "e2a4b2af",
			"setUINT256(uint256)": "ce877eee"
		}
	},
	"abi": [
		{
			"inputs": [],
			"name": "decreamentINT",
			"outputs": [],
			"stateMutability": "nonpayable",
			"type": "function"
		},
		{
			"inputs": [],
			"name": "increamentMyUINT8",
			"outputs": [],
			"stateMutability": "nonpayable",
			"type": "function"
		},
		{
			"inputs": [],
			"name": "increamentUINT256",
			"outputs": [],
			"stateMutability": "nonpayable",
			"type": "function"
		},
		{
			"inputs": [],
			"name": "myInt",
			"outputs": [
				{
					"internalType": "int256",
					"name": "",
					"type": "int256"
				}
			],
			"stateMutability": "view",
			"type": "function"
		},
		{
			"inputs": [],
			"name": "myUint",
			"outputs": [
				{
					"internalType": "uint256",
					"name": "",
					"type": "uint256"
				}
			],
			"stateMutability": "view",
			"type": "function"
		},
		{
			"inputs": [],
			"name": "myUint8",
			"outputs": [
				{
					"internalType": "uint8",
					"name": "",
					"type": "uint8"
				}
			],
			"stateMutability": "view",
			"type": "function"
		},
		{
			"inputs": [
				{
					"internalType": "uint256",
					"name": "newUINT",
					"type": "uint256"
				}
			],
			"name": "setUINT256",
			"outputs": [],
			"stateMutability": "nonpayable",
			"type": "function"
		}
	]
}